{"abi":[{"type":"constructor","inputs":[],"stateMutability":"nonpayable"},{"type":"function","name":"GetBalance","inputs":[],"outputs":[{"name":"","type":"uint256","internalType":"uint256"}],"stateMutability":"view"},{"type":"function","name":"Manager","inputs":[],"outputs":[{"name":"","type":"address","internalType":"address"}],"stateMutability":"view"},{"type":"function","name":"Winner","inputs":[],"outputs":[],"stateMutability":"payable"},{"type":"function","name":"participants","inputs":[{"name":"","type":"uint256","internalType":"uint256"}],"outputs":[{"name":"","type":"address","internalType":"address payable"}],"stateMutability":"view"},{"type":"function","name":"participate","inputs":[],"outputs":[],"stateMutability":"payable"}],"bytecode":{"object":"0x6080604052348015600f57600080fd5b50600180546001600160a01b031916331790556103bb806100316000396000f3fe60806040526004361061004a5760003560e01c806335c1d3491461004f57806378357e531461008c578063b2b98ed2146100ac578063d11711a2146100b6578063f8f8a912146100be575b600080fd5b34801561005b57600080fd5b5061006f61006a366004610334565b6100e1565b6040516001600160a01b0390911681526020015b60405180910390f35b34801561009857600080fd5b5060015461006f906001600160a01b031681565b6100b461010b565b005b6100b46101c9565b3480156100ca57600080fd5b506100d3610262565b604051908152602001610083565b600081815481106100f157600080fd5b6000918252602090912001546001600160a01b0316905081565b6001546001600160a01b0316331461012257600080fd5b6000546003111561013257600080fd5b6000805460019190610144908361034d565b9050600080828154811061015a5761015a61036f565b6000918252602090912001546001600160a01b03169050806108fc61017d610262565b6040518115909202916000818181858888f193505050501580156101a5573d6000803e3d6000fd5b50604080516000808252602082019283905290516101c392906102ba565b50505050565b3463b2d05e00146102215760405162461bcd60e51b815260206004820152601960248201527f457468657220617265206e6f74207375666675696369656e740000000000000060448201526064015b60405180910390fd5b600080546001810182559080527f290decd9548b62a8d60345a988386fc84ba6bc95484008f6362f93160ef3e5630180546001600160a01b03191633179055565b6001546000906001600160a01b031633146102b55760405162461bcd60e51b81526020600482015260136024820152722cb7ba9030b932903737ba1026b0b730b3b2b960691b6044820152606401610218565b504790565b82805482825590600052602060002090810192821561030f579160200282015b8281111561030f57825182546001600160a01b0319166001600160a01b039091161782556020909201916001909101906102da565b5061031b92915061031f565b5090565b5b8082111561031b5760008155600101610320565b60006020828403121561034657600080fd5b5035919050565b60008261036a57634e487b7160e01b600052601260045260246000fd5b500690565b634e487b7160e01b600052603260045260246000fdfea264697066735822122078424929ffcf9c13a4b3e411828d4f3f41a016f27d56509c556c271e6015404d64736f6c634300081a0033","linkReferences":{}},"methodIdentifiers":{"GetBalance()":"f8f8a912","Manager()":"78357e53","Winner()":"b2b98ed2","participants(uint256)":"35c1d349","participate()":"d11711a2"},"id":20}